:10000000007C0020A1280000CD280000CD280000A1
:10001000CD280000CD280000CD280000CD2800000C
:10002000CD280000CD280000CD280000CD280000FC
:10003000CD280000CC280000CD28000009030000D6
:10004000CD280000CD280000CD280000CD280000DC
:10005000CD280000CD280000CD280000CD280000CC
:10006000CD280000CD280000CD280000CD280000BC
:10007000CD280000CD280000CD280000CD280000AC
:10008000CD280000CD280000CD280000CD2800009C
:10009000CD280000CD280000CD280000CD2800008C
:1000A000CD280000CD280000CD280000CD2800007C
:1000B000CD280000CD280000CD280000CD2800006C
:1000C000CD280000CD28000010B5054C237833B9A9
:1000D000044B13B10448AFF300800123237010BD1B
:1000E0009000002000000000082A000008B5034B23
:1000F0001BB103490348AFF3008008BD00000000B6
:1001000094000020082A0000154B002B08BF134B59
:100110009D46A3F5803A00218B460F461348144AAA
:10012000121A01F082FA0F4B002B00D098470E4BA9
:10013000002B00D098470020002104000D000D483E
:10014000002802D00C48AFF3008001F03FFA2000F5
:10015000290000F0C5F901F025FA00BF00000800F1
:10016000007C002000000000000000009000002043
:10017000D0010020000000000000000082B0034613
:1001800000918DF807309DF90730002B0CDB009BA8
:10019000DBB20D4A9DF9071008465B01D9B213186E
:1001A0000A4683F800230CE0009BDAB207499DF968
:1001B0000730DBB203F00F03043B5201D2B20B4411
:1001C0001A7600BF02B0704700E100E000ED00E0E9
:1001D00000B583B00190019B013BB3F1807F01D357
:1001E00001230FE0094A019B013B536007214FF0B7
:1001F000FF30FFF7C3FF054B00229A60034B072235
:100200001A600023184603B05DF804FB10E000E01C
:10021000024BDB6C1B0EDBB218467047B081E00F5F
:1002200086B0039002910192039B03F10473DA00FC
:10023000029B13449B000593059B019A1A6000BF23
:1002400006B0704700B587B02A4B01225A644FF0C0
:100250005013049300230393FFF7DAFF03468DF84E
:100260000B306B46184602F0DBFA9DF80B308E2BF4
:1002700020D8214BD3F8B03001931F4A019B43F0A3
:100280000403C2F8B03000230593059B052B0DD85D
:100290001A49059A13465B0013441B010B444FF0A7
:1002A00050121A60059B01330593EEE7124A019B39
:1002B000C2F8B0309DF80B308F2B07D80E4BDB6A9D
:1002C00023F07F030C4A43F02003D3629DF80130F2
:1002D000012B05D10A4B1B68094A43F00403136044
:1002E00000220D210748FFF79BFF00BF07B05DF814
:1002F00004FB00BF00000E4000400E4000A0004084
:1003000064310E4054300E40034B1B680133024AE7
:10031000136000BF704700BFAC00002084B00190A4
:10032000094B1B680393084B1A68039BD31A019A65
:100330009A428CBF01230023DBB2002B00D0F2E7EE
:1003400000BF04B0704700BFAC00002008B5FFF745
:1003500079FF01210C4801F07BFB0C4801F0E0FB28
:1003600002460B4BA3FB02239B091846FFF730FF05
:100370000346002B14BF01230023DBB2002B00D067
:10038000FEE700BF08BD00BF00250A0070000200A4
:10039000D34D621000B583B003468DF807300121BC
:1003A0002B4801F055FB2B4B2B4A9A602B4B032219
:1003B0005A649DF80730002B1CD101230B220A211F
:1003C000022001F0E7FD01230B220B21022001F0A6
:1003D000E1FD224B9B6C23F01F03204A43F00F03E7
:1003E00093641E4B9B6C23F4F8531C4A43F47063D4
:1003F00093641BE001230B220B21012001F0CAFDB5
:1004000001230B220621052001F0C4FD134B9B6C38
:1004100023F01F03114A43F0060393640F4B9B6CB8
:1004200023F4F8530D4A43F4E853936409490B4805
:1004300001F04CFF0A4B00221A700A4B00221A707E
:10044000094B00221A7000BF03B05DF804FB00BF27
:100450000072040000000020DDFB050000C0004029
:10046000B0000020B1000020B200002000B58BB029
:10047000029101921A460346ADF80E301346ADF8CC
:100480000C30BDF80E30ADF810309DF834309BB212
:10049000ADF81230029B0593BDF80C30ADF8183062
:1004A000019B0793BDF83030ADF8203004AB1946FE
:1004B0000A4802F059F903468DF827309DF9273094
:1004C000002B06D0054801F02BFF03468DF827309E
:1004D000F4E7002318460BB05DF804FB00C00040B1
:1004E00000B589B0FFF732FF0020FFF753FF032369
:1004F00003930023049300230593039B04211846D0
:1005000001F048F80346069303AB0793079BDA68AC
:10051000079B9B689B00134401221A60079B9B6802
:100520000133079A1268013293FBF2F102FB01F2E8
:100530009A1A079B9A60079B9A68079B5B689A4286
:100540000CD1079B5B680133079A1268013293FB59
:10055000F2F102FB01F29A1A079B5A60079BDA68D4
:10056000079B9B689B00134404221A60079B9B68AF
:100570000133079A1268013293FBF2F102FB01F298
:100580009A1A079B9A60079B9A68079B5B689A4236
:100590000CD1079B5B680133079A1268013293FB09
:1005A000F2F102FB01F29A1A079B5A60079BDA6884
:1005B000079B9B689B00134410221A60079B9B6853
:1005C0000133079A1268013293FBF2F102FB01F248
:1005D0009A1A079B9A60079B9A68079B5B689A42E6
:1005E0000CD1079B5B680133079A1268013293FBB9
:1005F000F2F102FB01F29A1A079B5A604FF4FA706B
:10060000FFF78CFE1A4B00221A701A4B00221A7048
:1006100008230193012300930123164A1449C4209F
:10062000FFF724FF124B08221A70079BDA68079B1A
:100630005B689B0013441B68DAB20E4B1A70079B71
:100640005B680133079A1268013293FBF2F102FBF7
:1006500001F29A1A079B5A60082301930123009321
:100660000123044A0249C420FFF700FFC6E700BF88
:10067000B40000203401002003685A004CBF43F04E
:10068000004323F000431844704700BF61B32DE9D5
:10069000F84F01F1FF3A90460646D146002707EB96
:1006A000090404EBD4746410E50071190846FFF7DF
:1006B000E3FFA245834605F10800304409D0FFF767
:1006C000DBFFC34500F1FF3005D8404509D2671C68
:1006D000E5E7C34505D9A74202D004F1FF39DEE7BB
:1006E00000210846BDE8F88F08467047012807D06A
:1006F000022807D0044B00280CBF18460020704782
:100700000248704702487047D90D0000DD0D000017
:10071000E10D000030B5254B83B004468D1E4BB370
:1007200001A92846AFF30080F0B101992A46FFF7EE
:10073000ADFF0146C0B1FFF79FFF4B68A064012BDE
:100740002ED0002B01F1040026DBFFF795FF0023DC
:10075000C4E913030368002B12DBFFF78DFF0023AE
:100760002061184603B030BD0023236109231846D9
:1007700003B030BD0E490F48091AC9100191D5E7E1
:10078000C3F30360FFF7B2FF002814BF002309235F
:100790002061184603B030BD0123C4E91303D9E733
:1007A000002323610523184603B030BD000000007C
:1007B000202B0000302A00000368DA0710B5044639
:1007C00006D49B0700F1480009D500F05FFC2368C0
:1007D000590709D51A070ED5DB0613D510BD00F051
:1007E0004DFC23685907F5D404F1D00000F056FC05
:1007F00023681A07F0D404F5A87000F057FC2368AA
:10080000DB06EBD404F5E870BDE8104000F092BCC4
:10081000036803B103441846704700BF09207047BE
:10082000704700BF70B504460D4608E02B6C63614D
:100830002A462369214601209847082808D1296CB7
:100840002046FFF767FF06460028EFD000F09AFE2B
:100850000728FBD13046296CFFF7E2FF281D00F086
:1008600001FC00BF2DE9F0470C1D054617460FCCD3
:10087000ADF5727D03AE0FC60FCC0FC60FCC0FC601
:1008800094E80F0002ACD5F80C80D5F8189086E8F3
:100890000F000023236021E0236C6B614FF4F072A2
:1008A00021467AA800F0B6FE2B697AAA294630467E
:1008B0009847889BCDE900498246636431462B46C0
:1008C0002A460120C0470746F8B94FF4F0727AA9CA
:1008D000204600F09FFEBAF1080F1CD1216C28467B
:1008E000FFF718FF002F08BF0926074618BF0A2682
:1008F0000028D1D0A36B46F01001CDE900492A466B
:10090000636401202B46C04700B1092738460DF526
:10091000727DBDE8F087BAF1070FF6D13846216C39
:10092000FFF77EFF03A800F09DFB00BF406C7047FF
:10093000F0B5CB6B0B640D1D0F4606460FCDF9B01D
:1009400001AC0FC40FCD0FC40FCD0FC495E80F003D
:100950004FF0FF3584E80F00009506E033696A46E2
:10096000314698470828044608D110993046FFF7C9
:10097000D1FE0028F2D0092079B0F0BD6846FFF71B
:100980001BFF062CF7D139463046FFF74BFF00BF5F
:1009900030B4DD6BC160826119461D64002230BC39
:1009A00060E700BF70B5C66843690B64BEB90369F0
:1009B0000A4604460D46014602209847072807D0FC
:1009C000082803D129462046FFF72CFF00F0DAFD66
:1009D0003046296CFFF724FF281D00F043FB01225D
:1009E000FFF740FF00F0CEFDC2681AB1CA6B0A647F
:1009F000002237E79CE700BF704700BF836813B150
:100A00000146012018477047042907D8DFE801F0A4
:100A10000308060808000BB90F2A03D90220704703
:100A20000120704700EB820218465368009A136059
:100A3000704700BF10B584B0002303AC0A46009491
:100A40001946FFF7E1FF039804B010BD042907D849
:100A5000DFE801F00308060808000BB90F2A03D9E4
:100A6000022070470120704700EB8200009A126854
:100A700042601846704700BF10B584B004AC002334
:100A800044F8042D0A4600941946FFF7DFFF04B02E
:100A900010BD00BFF0B5D36B1364151D07460E469D
:100AA0000FCDADF50F7D17AC0FC40FCD0FC40FCD1B
:100AB0000FC495E80F004FF0FF3584E80F0016953E
:100AC00010E016A8FFF7D8FF314616A8B84716AAB7
:100AD000694678B9049B08209847052804460AD03F
:100AE000092807D026996846FFF714FE6A460C21AC
:100AF0000028E6D0092416A8FFF75EFE20460DF573
:100B00000F7DF0BD2DE9F04F0D46C96C89B00C1D6D
:100B1000164600F0030B0A6806941F46002B68D0A7
:100B2000130CD9B212048DF81D30022304EB81049A
:100B300005928DF81C302B6DBBF1020F08BFAC6B1A
:100B400013F0010346D1019300F008030093D4F899
:100B50000090B9F1000F00F0F380022F45D0B4F8F7
:100B60000090B4F802800434AB6C28F0010A0F2125
:100B700030469A44FFF75EFF824534D829F00103DE
:100B80005344834294BF002001204FEA480808F0F4
:100B9000020809F0010948EA0908B8F1010F3AD042
:100BA00031D3B8F1020F1AD1236823F0004ABBF108
:100BB000000F66D130B1009A002A6CD0BAF1000F54
:100BC00000F09080002B00DA04340AF1010304EBFA
:100BD0008304BCE7304605A900F046FB78B1092044
:100BE00009B0BDE8F08F0020CFE7D4F804800834C6
:100BF000BAE7120203230592ADF81C309BE70820E8
:100C000009B0BDE8F08FBBF1000F02D0002840F022
:100C1000B48004349BE7BBF1000F18D1A8B1D4E92C
:100C20000023991C4FEAD272D9D005F15801013343
:100C3000049100F0B580201DFFF7EAFD04AB0146EA
:100C40002846AFF30080002867D108347FE70D21E4
:100C50003046D5F82080FFF7EDFE8045F5D1AB6A30
:100C60009C42F2D12046FFF707FD0F210246304695
:100C7000FFF702FF30462A460021FFF7FDFE07205E
:100C8000AEE70D213046D5F82080FFF7D3FE804532
:100C900032D0236896E7BAF1000F23D005F158034C
:100CA00004F10408CDF808B0DDF800900397A346DE
:100CB0001C4602E05745B94640D040460494FFF731
:100CC000A7FD04AB014600222846AFF3008009F1DE
:100CD000010708F104080028ECD0D1455C46DDE9A5
:100CE00002B7D6D130460D21FFF7A4FE049B28623F
:100CF000C5E90934062073E7AB6A9C42C9D10422D6
:100D00004FF00008A318C5E90AA8C5E90C23236819
:100D100043454DDB0123019357E780460D213046C3
:100D2000FFF788FEB8F1020F28623ED12B46049AE5
:100D300043F82C2F6B62AC62062051E75C46D1E78A
:100D400005A9304600F090FA00287FF448AF019BD7
:100D5000002B3FF454AF0F213046FFF76BFE0E21FE
:100D600002463046FFF788FE30461A4A0F21FFF749
:100D700083FE072009B0BDE8F08F2046FFF77CFC1A
:100D800004340746AC632846AFF3008000283FF4E4
:100D900026AF30463A460F21FFF76EFE07201FE7C9
:100DA00030460D21FFF746FE2862049B6B62C2E7C6
:100DB0000AF1010004EB8000FFF75EFC0F21024600
:100DC0003046FFF759FE30462A464146FFF754FEAB
:100DD000072005E700000000002393E6012391E6C9
:100DE00002238FE62DE9F0410546C4B0042906D858
:100DF000DFE801F04D2B05030900032B5FD0022033
:100E000044B0BDE8F081002BF9D1102AF7D82B6847
:100E1000DC0600F1F48022AC2046019200F094F947
:100E2000A86B019A0023012606FA03F1114203D0B0
:100E3000016844F8231004300133042BF4D1A86373
:100E4000204600F077F90020DAE7012B4FEA12463E
:100E500097B252D0052BD2D106EB0708B8F1200F7C
:100E6000CDD80F2E40F29980B846002F40F0DB809D
:100E7000AA6BAA630F2E40F2BE80B8F1000F02D019
:100E800002A800F00BF9002044B0BDE8F081002B6F
:100E9000B5D1AC6B97B2281D012606FA03F1394291
:100EA00003F1010302D0216801600434102B00F12A
:100EB0000400F2D112F40050E5D1AC63A0E7160CA7
:100EC00097B2F319102B9AD82B681A075DD422AC6D
:100ED000204600F00DF904EBC601AB6B3FB103EB0C
:100EE000C702186841F8040B04339342F9D1204635
:100EF000AB6300F0DBF8002082E7F219102A3FF61E
:100F00007EAF0F2E3FF67BAF2A68D10708D5284663
:100F100022F0030240F8482B019300F0B3F8019B44
:100F2000019322AC204600F0ADF8A96B019B002F85
:100F300000F095807F0004EBC6044FF00008043CED
:100F400001EB870251F8040B44F8040F9142F9D1E8
:100F5000B8F1000F0FD002AC102E314638BF10216F
:100F600004EBC101843902EBC80452F8040B41F8C8
:100F7000040F9442F9D1012B7FF47BAF22AC0432F1
:100F8000AA63204600F07AF87DE723F008032B607F
:100F900005F5A87000F0ACF899E7B8F1100F2A68D1
:100FA00043D9D007A8F110080BD5284622F001023A
:100FB00042F0020240F8482B019300F06BF82A68D7
:100FC000019B510725D40F2E04D822A8019300F0CD
:100FD00061F8019B019302AC204600F063F8C6F172
:100FE00010010029AA6B019BB6DD22AC4F0004EB77
:100FF000C6041146A3E722A800F048F83DE723F015
:1010000010032B6005F5E870019200F09DF8019A3D
:1010100001E7284622F0040240F8D02B019300F0AB
:1010200041F8019BCFE72A68CBE7D0070AD52846CD
:1010300022F0010242F0020240F8482B019300F036
:1010400029F8019B019322AC204600F023F8B84612
:10105000A96B019B002F7FF46DAF0A4609E70A4692
:101060008DE700BF00F1340191E838009C46A646A8
:101070004CF8045D90E8FF0FE54600BD90EC210BB5
:10108000704700BF80EC210B704700BF90EC200B35
:10109000704700BF80EC200B704700BFD0EC200BE6
:1010A000704700BFC0EC200B704700BFF0EC02019E
:1010B000F0EC0211F0EC0221F0EC0231F0EC024114
:1010C000F0EC0251F0EC0261F0EC0271F0EC028104
:1010D000F0EC0291F0EC02A1F0EC02B1F0EC02C1F4
:1010E000F0EC02D1F0EC02E1F0EC02F1704700BF4D
:1010F000E0EC0201E0EC0211E0EC0221E0EC023154
:10110000E0EC0241E0EC0251E0EC0261E0EC027143
:10111000E0EC0281E0EC0291E0EC02A1E0EC02B133
:10112000E0EC02C1E0EC02D1E0EC02E1E0EC02F123
:10113000704700BFB0FC0181B0FC0191B0FC01A17F
:10114000B0FC01B1704700BFA0FC0181A0FC01917F
:10115000A0FC01A1A0FC01B1704700BFEC4600B5A6
:101160002DE900502DE9FF1F4FF000032DE90C0081
:1011700001A9FFF7DDFBDDF840E012B0704700BFCA
:10118000EC4600B52DE900502DE9FF1F4FF000039C
:101190002DE90C0001A9FFF705FCDDF840E012B0D5
:1011A000704700BFEC4600B52DE900502DE9FF1F48
:1011B0004FF000032DE90C0001A9FFF715FCDDF845
:1011C00040E012B0704700BFEC4600B52DE900507A
:1011D0002DE9FF1F4FF000032DE90C0001ABFFF7D5
:1011E000D7FBDDF840E012B0704700BFEC4600B519
:1011F0002DE900502DE9FF1F4FF000032DE90C00F1
:1012000001AAFFF747FCDDF840E012B0704700BFCD
:10121000027A7AB9437AA3B14268013B10B44372AF
:1012200013680321141D01721A024460026010BC8D
:10123000180E70470368013A02721A020260180E13
:101240007047B020704700BF00B585B003AA0023E7
:10125000009219460C22FFF7D7FB039805B05DF802
:1012600004FB00BFF0E700BF2DE9F043054685B061
:101270000E464FF000083046FFF7CAFFB02804467C
:1012800000F0B180070620D500F0F003802B65D078
:10129000902B36D0A02B78D0B02B47D0C02B00F0AD
:1012A0008A8000F0F803D02B0BD100F00702013246
:1012B00042F40022052301212846FFF793FD002870
:1012C000D9D0092005B0BDE8F0830DF10C09002349
:1012D00019468700CDF800900D222846FFF794FBB1
:1012E000FFB2039BCDF80090043760064CBFDF1BB4
:1012F000FF18002319460D2228460397FFF7A6FB87
:10130000B9E700F00D030D2BDBD003AF002300F095
:101310000F02194600972846FFF776FB0023009737
:1013200019460D222846FFF791FBA4E7B1285FD0AC
:10133000B22800F0CC80B3287ED000F0FC03B42BA0
:10134000BFD000F007020132012342F40022194607
:101350002846FFF747FD00288DD0B2E73046FFF75B
:1013600057FF24020443B4F5004FAAD02401002300
:10137000A2B219462846FFF735FD0028A1D114F482
:10138000004F18BF4FF0010875E7C24302F0070392
:101390004FF47F621A41010702F47F624FF00003AD
:1013A00048BF42F4804219462846FFF71BFD00283B
:1013B0003FF461AF85E7C62851D0C7285AD000F066
:1013C000F803C02B69D0C82875D0C9287FF479AF3D
:1013D0003046FFF71DFF020300F00F0002F47022F9
:1013E0000130024366E7B8F1000F14D0002069E72E
:1013F0003046FFF70DFF00283FF463AF10F0F00315
:101400007FF45FAF024619462846FFF7EBFC002841
:101410003FF431AF55E703AC43460E2241460094FA
:101420002846FFF7F1FA0094284643460F2241462A
:10143000FFF70CFB404645E73046FFF7E9FE0103A6
:1014400000F00F0001F47021421C01230A432846DA
:101450001946FFF7C7FC00283FF40DAF31E73046CF
:10146000FFF7D6FE010300F00F0001F47021421CCB
:101470000323EBE73046FFF7CBFE024600283FF49C
:1014800020AF10F0F0037FF41CAF04212846FFF7D3
:10149000A9FC00283FF4EFAE13E700F00F02013281
:1014A000032342F4202219462846FFF79BFC00281C
:1014B0003FF4E1AE05E73046FFF7AAFE00F0F00288
:1014C00000F00F031032013343EA0232F2E6002348
:1014D0000DF10C090D221946CDF800902846FFF7B2
:1014E00093FA3046FFF794FE02064FF002070CD540
:1014F000039B00F07F00B840034430460393FFF79E
:1015000087FE030607F10707F2D4039BCDF800908E
:1015100000F07F0403F50172BC4000231444194617
:101520000D2228460394FFF791FAA4E610B5C36C88
:1015300084B05A6803208DF80C00DC798DF80D40DA
:1015400012020833084601A901920293FFF78CFEAC
:1015500004B010BD08B5FFF785FE806C08BD00BF64
:1015600008B5FFF77FFEC06CC37900EB830008303D
:1015700008BD00BF08B500F005F800BF08B5FFF7CB
:10158000F9FF00BF08B5062000F0F8F8012000F0D0
:1015900031F90000024B0A460146186800F04DB8C8
:1015A0001000002008B5074B044613B10021AFF32B
:1015B0000080054B1868836A03B19847204600F005
:1015C00019F900BF00000000002A000070B50D4EA0
:1015D0000D4CA41BA4100025A54209D10B4E0C4CA8
:1015E00001F002FAA41BA4100025A54205D170BD8C
:1015F00056F8253098470135EEE756F825309847DC
:101600000135F2E7880000208800002088000020D3
:101610008C00002010B5431E0A44914200D110BD39
:1016200011F8014B03F8014FF7E7024403469342D8
:1016300000D1704703F8011BF9E738B502FB01F44C
:10164000214600F009F8054618B122460021FFF7AF
:10165000ECFF284638BD000070B5CD1C25F0030511
:1016600008350C2D38BF0C25002D064601DBA9429C
:1016700003D90C233360002070BD00F09BF8214A91
:101680001468214691B9204C23681BB9304600F0FC
:101690003DF820602946304600F038F8431C24D13C
:1016A0000C233360304600F086F8E4E70B685B1BE0
:1016B00018D40B2B0FD90B60CD50CC18304600F04E
:1016C0007AF804F10B00231D20F00700C31AD3D0D1
:1016D0005A42E250D0E78C424B6816BF63601360F9
:1016E0000C46EBE70C464968CCE7C41C24F0030425
:1016F000A04205D0211A304600F008F80130CFD0C2
:101700002560DBE7B4010020B801002038B5064CA5
:10171000002305460846236000F05EF8431C02D112
:10172000236803B12B6038BDCC0100201F2938B5D8
:1017300004460D4604D9162303604FF0FF3038BD30
:10174000426C12B152F821304BB9204600F030F80B
:101750002A4601462046BDE8384000F017B8012B64
:101760000AD0591C03D1162303600120E7E70024A7
:1017700042F82540284698470020E0E7024B014602
:101780001868FFF7D3BF00BF1000002038B5074C22
:101790000023054608461146236000F015F8431C57
:1017A00002D1236803B12B6038BD00BFCC010020FB
:1017B00000F002B870477047024B58221A604FF091
:1017C000FF307047CC010020024B58221A604FF0C6
:1017D000FF307047CC010020044A05491368002BF4
:1017E00008BF0B461844106018467047BC01002023
:1017F000D0010020FEE700BF86B003900291019265
:10180000039B03F10473DA00029B13449B000593CE
:10181000059B019A1A6000BF06B0704782B0019024
:101820000122019B02FA03F3184602B07047000040
:1018300082B0034B1B680193019B184602B07047AE
:101840007400002000B583B001F060F80190074BF0
:10185000D3F800311B0A03F01F030133019A02FB86
:1018600003F3184603B05DF804FB00BF00400E40D0
:1018700000B583B00D4800F025FA03468DF803301B
:101880009DF80330072B05D0092B07D101F03EF856
:10189000019006E0FFF7CCFF019002E000230193E6
:1018A00000BF019B184603B05DF804FB06000E0064
:1018B00000B585B00190019B002B1FD11C4800F0A2
:1018C00001FA03468DF80B3000BF9DF80B30013B49
:1018D000072B24D801A252F823F000BF0119000001
:1018E0001F1900001F1900000F1900001F19000028
:1018F0001F1900000719000017190000002312E04B
:10190000002303930EE0FFF793FF03900AE001F03A
:101910002FF8039006E0FFF795FF039002E0002305
:10192000039300BF039B184605B05DF804FB00BF9E
:10193000B800320010B584B0019000230293019BDF
:10194000334A934206D0334A934203D0324A9342F9
:1019500000D000E000BF019800F0B4F90346039303
:10196000019B2B4A93420DD02A4A934211D02A4A16
:10197000934200D014E0294BD3F8803003F00703E2
:1019800003930DE0254BD3F8843003F00703039352
:1019900006E0224BD3F8883003F00703039300BF1F
:1019A000039B042B2DD801A252F823F0FD1900004F
:1019B000C1190000C9190000D9190000D11900008F
:1019C00001F004F802901FE001F008F802901BE01B
:1019D00001F000F8029017E000F07AFF04460F4B88
:1019E000D3F800311B0E03F0010301331846FFF753
:1019F00015FF0346B4FBF3F3029305E000230293C3
:101A000002E00023029300BF029B184604B010BD01
:101A1000030020000500240002001E0000400E40CC
:101A200082B00190094BD3F8443103F00103002B3D
:101A300008D100BF054BD3F84021019B1340002B78
:101A4000F8D100E000BF02B0704700BF00400E4078
:101A500000B587B001900B468DF803300023049346
:101A6000019B1B0A03F00F03013B092B45D801A280
:101A700052F823F09D1A0000A91A0000FB1A00007A
:101A8000FB1A0000A31A0000AF1A0000B91A0000E8
:101A9000FB1A0000C31A0000CF1A0000194B05936F
:101AA00018E0194B059315E0184B059312E0184BFD
:101AB0000593012304930DE0164B05931023049323
:101AC00008E0154B05934FF48033049302E0134B69
:101AD000059300BF019B1B0B03F01F030393049BA3
:101AE000002B02D00498FFF79BFF9DF803301A46A5
:101AF00003990598FFF780FE00E000BF07B05DF88E
:101B000004FB00BF00400E40B0400E40C0400E40FD
:101B1000E0400E40E8400E40F0400E4050410E4084
:101B200000B585B00190019B03F47813B3F5801FD5
:101B300000F0AF80B3F5801F16D8B3F5802F32D0F8
:101B4000B3F5802F05D8002B29D0B3F5003F3DD049
:101B5000A8E0B3F5402F48D0B3F5602F00F0958092
:101B6000B3F5202F2ED09DE0B3F5F01F4CD0B3F588
:101B7000F01F09D8B3F5B01F59D0B3F5D01F6DD001
:101B8000B3F5A01F45D08DE0B3F5101F78D0B3F5A5
:101B9000481F00F08280B3F5001F5AD082E000F0A9
:101BA000B5FE039081E000F0B1FE0390414BD3F805
:101BB0000C311B0AC3F308030133039AB2FBF3F39E
:101BC000039372E000F0A2FE03906EE000F09EFE30
:101BD0000390384BD3F808311B0AC3F308030133D1
:101BE000039AB2FBF3F303935FE000F08FFE0390E0
:101BF000304BD3F814311B0A03F01F030133039A4F
:101C0000B2FBF3F3039350E02B48FFF793FE0390EE
:101C10004BE02A48FFF78EFE0390264BD3F8303175
:101C200003F00F03039A22FA03F303933DE02248E3
:101C3000FFF780FE03901F4BD3F8203103F00F0312
:101C40001846FFF7EBFD0246039BB3FBF2F3039349
:101C50002BE01B48FFF76EFE039026E01848FFF7C5
:101C600069FE0390134BD3F8283103F003031846A1
:101C7000FFF7D4FD0246039BB3FBF2F3039314E09A
:101C80000E48FFF757FE03900FE0FFF7F1FD0390BA
:101C90000BE0FFF7CDFD039007E00020FFF708FE03
:101CA000039002E00023039300BF039B184605B096
:101CB0005DF804FB00400E4002001E0005002400F9
:101CC0000300200084B0019001238DF80F30019BA8
:101CD00003F00F030293029B013B072B00F2CC8021
:101CE00001A252F823F000BF091D0000431D0000AF
:101CF0007B1D0000791E0000CB1D0000031E0000AC
:101D0000791E00002D1E0000604BD3F8943003F0C4
:101D10000703032B08D0042B02D0022B08D00BE0C2
:101D200002238DF80F300BE003238DF80F3007E00E
:101D300004238DF80F3003E005238DF80F3000BF2A
:101D40009EE0524BD3F8803003F00703022B07D0FC
:101D5000042B09D0012B0BD103238DF80F300BE09E
:101D600002238DF80F3007E00A238DF80F3003E0CF
:101D700001238DF80F3000BF82E0444BD3F884304C
:101D800003F00703013B032B1AD801A252F823F0FA
:101D9000A11D0000A91D0000B91D0000B11D00001B
:101DA00003238DF80F300FE002238DF80F300BE086
:101DB0000A238DF80F3007E006238DF80F3003E07B
:101DC00001238DF80F3000BF5AE0304BD3F8883034
:101DD00003F00703022B07D0042B09D0012B0BD1F2
:101DE00003238DF80F300BE002238DF80F3007E04E
:101DF0000A238DF80F3003E001238DF80F3000BF68
:101E00003EE0224B1B6F03F00103002B05D0012B9A
:101E100007D109238DF80F3007E007238DF80F3025
:101E200003E001238DF80F3000BF29E0174BD3F8F2
:101E30005C3103F03003102B0DD0102B02D8002B97
:101E400005D014E0202B0AD0302B0CD00FE001235A
:101E50008DF80F300FE007238DF80F300BE00423CF
:101E60008DF80F3007E008238DF80F3003E00123D1
:101E70008DF80F3000BF03E000238DF80F3000BF56
:101E80009DF80F30184604B0704700BF00400E4068
:101E900084B001900091019B03F1C0630393039B05
:101EA000009A1A6000BF04B0704784B0019000919E
:101EB000019B03F180630393039B009A1A6000BFA8
:101EC00004B0704700B583B0034600918DF8073029
:101ED0009DF80730002B12D09DF80730012B0ED053
:101EE0009DF80730022B0AD09DF80730032B06D04F
:101EF0009DF80730042B02D09DF80730052B9DF884
:101F0000072013465B0013441B010C3303F180438D
:101F100003F520430121009A01FA02F21146184606
:101F2000FFF7C3FF00BF03B05DF804FB00B583B04B
:101F3000034600918DF807309DF80730002B12D032
:101F40009DF80730012B0ED09DF80730022B0AD0E8
:101F50009DF80730032B06D09DF80730042B02D0E4
:101F60009DF80730052B9DF8072013465B001344AE
:101F70001B010C3303F1804303F520430121009A38
:101F800001FA02F211461846FFF782FF00BF03B0C4
:101F90005DF804FB00B585B00291019303468DF80E
:101FA0000F3013468DF80E309DF80F30002B12D0F5
:101FB0009DF80F30012B0ED09DF80F30022B0AD068
:101FC0009DF80F30032B06D09DF80F30042B02D064
:101FD0009DF80F30052B9DF80E30002B0FD0019B84
:101FE000002B06D09DF80F3002991846FFF79EFF90
:101FF00005E09DF80F3002991846FFF763FF029B3A
:10200000072B23D832499DF80F2013465B00134459
:102010001B010B4404331A68029B9B000F2101FA39
:1020200003F3DB4313409DF80E10029A920001FA6D
:1020300002F2114626489DF80F20194313465B0013
:1020400013441B0103440433196028E020499DF820
:102050000F2013465B0013441B010B4408331A681E
:10206000029B03F18043083B9B000F2101FA03F31D
:10207000DB4302EA03019DF80E20029B03F180433B
:10208000083B9B0002FA03F311489DF80F20194307
:1020900013465B0013441B010344083319609DF889
:1020A0000E30002B0FD1019B002B06D09DF80F3076
:1020B00002991846FFF73AFF05E09DF80F300299A4
:1020C0001846FFF7FFFE00BF05B05DF804FB00BF38
:1020D00000A0004082B001900091019B009ADA6359
:1020E00000BF02B0704786B0039002910192039B3B
:1020F00003F10473DA00029B13449B000593059BD4
:10210000019A1A6000BF06B0704784B00190009138
:10211000019B03F1C0630393039B009A1A6000BF05
:1021200004B0704784B001900091019B03F180637B
:102130000393039B009A1A6000BF04B0704700B578
:1021400085B003900291019202990398FFF7EAFF8C
:1021500001990398FFF7D9FF00BF05B05DF804FBB4
:1021600082B0019001E0019BDB69019BDB6803F415
:102170008073002BF7D100BF02B0704700B589B063
:102180000390029101928DF80330019B002B74D0D3
:102190009DF8033003F003038DF80330039B1B68A5
:1021A00023F44072039B1A6003989DF803301B02CE
:1021B0001A464FF44071FFF7C2FF029B002B07D174
:1021C000039B314A934203D13048FFF7A9FC0290A8
:1021D0004FF0FF330693039B1B6803F00203002BB1
:1021E00011D09DF80330012B07D0022B08D0002B13
:1021F00000D01AE0264B069317E0264B069314E016
:10220000254B069311E09DF80330012B07D0022BDC
:1022100008D0002B00D008E01D4B069305E01F4BB3
:10222000069302E01E4B069300BF9DF803301D4A43
:10223000D35C0593059B019A02FB03F30493049B73
:10224000002B1CD0019BDB00029AD21A049B134482
:102250005A1E049BB2FBF3F3013B0793039B1B68DD
:1022600003F00203002B04D0079B002B01D10123B4
:102270000793079A039B1A6102E000BF00E000BFCA
:1022800009B05DF804FB00BF00C00040007204000C
:1022900080841E00404B4C00809FD5004054890034
:1022A000002D3101042A000000B583B001900B46D7
:1022B0008DF80330019B9DF8032000211846FFF79D
:1022C00012FF00BF03B05DF804FB000000B583B04F
:1022D00001900091019B00221A6410490198FFF7B8
:1022E000F9FE0198009B5B7883F00103DBB21A468C
:1022F0000121FFF7F8FE009B5968009B9A68009B3C
:102300001B7B0198FFF73AFF009B1B781946019849
:10231000FFF7CAFF00BF03B05DF804FBFFFF070033
:1023200000B589B00190019BA74A934205D1A74B04
:102330000693069B9B68059302E06FF003030FE290
:10234000019B5B6B0493049B03F4C063002B14D0CC
:10235000049B03F40073002B03D0069BFD225A70EC
:1023600007E0049B03F48063002B02D0069BFE224F
:102370005A70069B09221A70DDE1069B1B78082B18
:1023800000F2C58101A252F823F000BFB123000082
:10239000032400008F240000E524000037250000FE
:1023A0008D2500001F2600005F260000F326000098
:1023B000059B5B8803F01003002B09D0059B1B884D
:1023C0001B0A9BB203F0060343F0F00307930EE0F1
:1023D000059B1B8803F0FE030793059B5B8803F0B6
:1023E0000203002B03D0079B43F001030793069BD6
:1023F00001221A70019B079ADA62019B01225A603E
:1024000099E1049B03F08003002B0DD080210198FB
:10241000FFF760FE069BFF225A70069B08221A7087
:10242000019B02225A607BE1049B03F04003002BD6
:1024300000F0768140210198FFF74CFE059B5B88F8
:1024400003F01003002B08D0069B02221A70059B94
:102450001B88DAB2019BDA6262E1059B5B8803F0BC
:102460000203002B0FD0069B07221A70069B1B79D4
:10247000059ADB0013441B89012B40F05181019B1D
:1024800008225A604CE1069B05221A7047E1049B22
:1024900003F08003002B0DD080210198FFF71AFE76
:1024A000069BFF225A70069B08221A70019B02228B
:1024B0005A6037E1049B03F04003002B00F03281A7
:1024C00040210198FFF706FE059B5B8803F002039D
:1024D000002B03D0069B03221A7020E1069B0522E5
:1024E0001A701CE1059B5B8803F01003002B09D0D8
:1024F000059B1B881B0A9BB203F0060343F0F00305
:10250000079304E0059B1B8803F0FE030793059BDC
:102510005B8803F00403002B03D0079B43F0010307
:102520000793069B04221A70019B01225A60019BAB
:10253000079ADA62FFE0049B03F08003002B0DD0C2
:1025400080210198FFF7C6FD069BFF225A70069B6B
:1025500008221A70019B02225A60E5E0049B03F0F6
:102560004003002B00F0E08040210198FFF7B2FD0E
:10257000059B5B8803F00403002B03D0069B072216
:102580001A70D1E0069B05221A70C8E0069B5A8893
:10259000069B1B790599DB000B441B899A4229D3C2
:1025A000069B00225A80069B1B790133DAB2069BF8
:1025B0001A71059B5B8803F00403002B08D0069B6F
:1025C00003221A70ABE000BF00C00040C001002031
:1025D000059B5B8803F00103002B04D1069B1B794C
:1025E000012B40F29B80069B08221A70019B02225D
:1025F0005A60A0E0069B1B79059ADB0013445A68D9
:10260000069B5B88591C88B20699488013441B7846
:102610001A46019BDA62069B06221A708BE0049B25
:1026200003F08003002B0DD080210198FFF752FDAD
:10263000069BFF225A70069B08221A70019B0222F9
:102640005A6073E0049B03F04003002B6ED04021DE
:102650000198FFF73FFD069B05221A705FE0049B7F
:1026600003F02003002B63D0069B1B79059ADB0047
:1026700013441B890393019BDB698DF80B30069B88
:102680005B881A46039B93420FD9069B1B79059AD8
:10269000DB0013445A68069B5B88591C88B2069974
:1026A000488013449DF80B201A70069B5B881A46DD
:1026B000039B93420CD8039B012B02D1019B082260
:1026C0005A60069B08221A70019B02225A602FE072
:1026D000019B04225A60039B012B29D9069B5B882E
:1026E0001A46039B013B9A4222D1019B08225A6061
:1026F0001EE0049B03F48073002B1BD04FF4807109
:102700000198FFF7E7FC069B09221A7012E0069B6E
:10271000FB225A70069B09221A700CE000BF0FE6DC
:1027200000BF08E000BF06E000BF04E000BF02E019
:1027300000BF00E000BF069B1B78092B0BD1019B5B
:1027400000221A64069B93F90130012B05D1069BE8
:1027500000225A7001E0012302E0069B93F9013048
:10276000184609B05DF804FB00B585B001900091F2
:10277000019B284A934208D1274B0393019B9B68F6
:1027800003F00103002B06D002E06FF003033CE0EE
:10279000019B20225A60009B5B8803F00203002B00
:1027A00003D0009B1B89002B09D0009B5B8803F0A2
:1027B0000403002B06D0009B1B8A002B02D16FF074
:1027C000030322E0039B00221A70039B01225A702C
:1027D000039B00225A80039B00221A71039B009ADC
:1027E0009A60019BC0225A600198FFF7B9FC0B491F
:1027F0000198FFF76FFC019B1B6C43F4FC62019B8B
:102800001A640198FFF78CFD0346184605B05DF881
:1028100004FB00BF00C00040C0010020FFFF070014
:1028200084B001901D4B5B69DBB29B00DBB203F00F
:102830003C038DF80F30194B1B699B09DBB203F089
:102840000303DAB29DF80F3013438DF80F30019B6C
:102850009DF80F209A70114B1B69DBB203F03F0308
:10286000DAB2019B5A700D4B9B691B09DBB21B014D
:102870008DF80F30094BDB691B09DBB203F00F0346
:10288000DAB29DF80F3013438DF80F30019B9DF89D
:102890000F201A7000BF04B0704700BFD0FF0FE0D8
:1028A000064880470649074A074B9A42BEBF51F87F
:1028B000040B42F8040BF8E7FDF726FC7D29000025
:1028C000202B00000000002090000020FEE700BF49
:1028D00000B583B000F01AF801900A4BD3F8083124
:1028E0001B0AC3F308030093009B0133019AB2FB58
:1028F000F3F30193044A019B1360019B184603B054
:102900005DF804FB00400E408000002082B0144BB4
:10291000D3F8943003F00703032B08D0042B02D024
:10292000022B08D00BE00F4B1B6801930BE04FF418
:102930000043019307E00C4B1B68019303E00B4B32
:102940001B68019300BF064BD3F800311B0A03F04C
:102950001F030133019AB2FBF3F3184602B070472C
:1029600000400E407C000020780000208400002001
:10297000014B1B6818467047780000200E4B0F4A29
:102980009A600F4B5B6D0E4A43F4005353650C4B3A
:102990001B6C0B4A23F0030313640A4B1B68094AA0
:1029A00023F001031360084B1B68074A23F0805390
:1029B000136000BF704700BF00ED00E000000000A2
:1029C00000300E4074300E4060300E404FF4004333
:1029D000184670474FF47A7318467047014B1B68CE
:1029E000184670477C000020F8B500BFF8BC08BC52
:1029F0009E467047F8B500BFF8BC08BC9E467047BD
:0C2A00001400002008091108000000006C
:102A0C0008B10181B0B000840000000008B1018160
:102A1C00B0B000840000000008B10181B0B00084A7
:042A2C0000000000A6
:102A3000D8D6FF7F010000000CD8FF7F00840680FD
:102A4000C8D8FF7F0100000004D9FF7FC0FFFF7FCF
:102A500044D9FF7F0084028014DAFF7F00840A805B
:102A600080DAFF7F0084088010DCFF7F0100000017
:102A7000A4DCFF7FB0A9028040DDFF7FB0B0A8805A
:102A800090DDFF7F010000009CDDFF7FB0B0AA80D9
:102A9000D4DDFF7FAE71B28094DEFF7F01000000C5
:102AA00090DEFF7FAB3F3880E8DEFF7F0100000053
:102AB000F4DEFF7FB0B0AA8030DFFF7F01000000AE
:102AC000D4DFFF7FAB0EB2803CE0FF7FB0AF088069
:102AD00008E3FF7F010000000CE3FF7FAC3F0380B1
:102AE00084E5FF7F0100000060E7FF7F0084048031
:102AF00074E7FF7F0100000070E7FF7FB0AD048046
:102B00002CEAFF7FB0A803804CEAFF7F0CFFFF7F19
:102B100050EAFF7F10FFFF7F5CEAFF7F01000000AB
:102B200001010000000000006067010000000000DB
:102B30001400002000000000000000000000000061
:102B40000000000000000000000000000000000085
:102B50000000000000000000000000000000000075
:102B60000000000000000000000000000000000065
:102B70000000000000000000000000000000000055
:102B80000000000000000000000000000000000045
:102B900000000000C0EA210100F0490200800000AE
:102BA000C0EA2101C0EA2101ED000000C9000000D7
:04000003000028A130
:00000001FF
